{
  "contractName": "Election",
  "abi": [
    {
      "constant": true,
      "inputs": [],
      "name": "candidatesCount",
      "outputs": [
        {
          "name": "",
          "type": "uint256"
        }
      ],
      "payable": false,
      "stateMutability": "view",
      "type": "function"
    },
    {
      "constant": true,
      "inputs": [
        {
          "name": "",
          "type": "uint256"
        }
      ],
      "name": "candidates",
      "outputs": [
        {
          "name": "id",
          "type": "uint256"
        },
        {
          "name": "name",
          "type": "string"
        },
        {
          "name": "voteCount",
          "type": "uint256"
        }
      ],
      "payable": false,
      "stateMutability": "view",
      "type": "function"
    },
    {
      "constant": true,
      "inputs": [
        {
          "name": "",
          "type": "address"
        }
      ],
      "name": "voters",
      "outputs": [
        {
          "name": "voteCount",
          "type": "uint256"
        },
        {
          "name": "maxVote",
          "type": "uint256"
        }
      ],
      "payable": false,
      "stateMutability": "view",
      "type": "function"
    },
    {
      "inputs": [],
      "payable": false,
      "stateMutability": "nonpayable",
      "type": "constructor"
    },
    {
      "anonymous": false,
      "inputs": [
        {
          "indexed": true,
          "name": "_candidateId",
          "type": "uint256"
        }
      ],
      "name": "votedEvent",
      "type": "event"
    },
    {
      "anonymous": false,
      "inputs": [
        {
          "indexed": true,
          "name": "votes",
          "type": "uint256"
        }
      ],
      "name": "voteLimitEvent",
      "type": "event"
    },
    {
      "constant": false,
      "inputs": [
        {
          "name": "_candidateId",
          "type": "uint256"
        }
      ],
      "name": "vote",
      "outputs": [],
      "payable": false,
      "stateMutability": "nonpayable",
      "type": "function"
    },
    {
      "constant": false,
      "inputs": [
        {
          "name": "_candidateId",
          "type": "uint256"
        }
      ],
      "name": "unvote",
      "outputs": [],
      "payable": false,
      "stateMutability": "nonpayable",
      "type": "function"
    },
    {
      "constant": false,
      "inputs": [
        {
          "name": "votes",
          "type": "uint256"
        }
      ],
      "name": "addMaxVotes",
      "outputs": [],
      "payable": false,
      "stateMutability": "nonpayable",
      "type": "function"
    }
  ],
  "bytecode": "0x608060405234801561001057600080fd5b5061005e6040805190810160405280600b81526020017f43616e6469646174652031000000000000000000000000000000000000000000815250610169640100000000026401000000009004565b6100ab6040805190810160405280600b81526020017f43616e6469646174652032000000000000000000000000000000000000000000815250610169640100000000026401000000009004565b6000600160003373ffffffffffffffffffffffffffffffffffffffff1673ffffffffffffffffffffffffffffffffffffffff168152602001908152602001600020600101541415610164576040805190810160405280600081526020016003815250600160003373ffffffffffffffffffffffffffffffffffffffff1673ffffffffffffffffffffffffffffffffffffffff16815260200190815260200160002060008201518160000155602082015181600101559050505b61028a565b6002600081548092919060010191905055506060604051908101604052806002548152602001828152602001600081525060008060025481526020019081526020016000206000820151816000015560208201518160010190805190602001906101d49291906101e5565b506040820151816002015590505050565b828054600181600116156101000203166002900490600052602060002090601f016020900481019282601f1061022657805160ff1916838001178555610254565b82800160010185558215610254579182015b82811115610253578251825591602001919060010190610238565b5b5090506102619190610265565b5090565b61028791905b8082111561028357600081600090555060010161026b565b5090565b90565b610826806102996000396000f300608060405260043610610078576000357c0100000000000000000000000000000000000000000000000000000000900463ffffffff1680630121b93f1461007d5780632d35a8a2146100aa5780633477ee2e146100d557806351ec42851461018957806361fb8b34146101b6578063a3ec138d146101e3575b600080fd5b34801561008957600080fd5b506100a860048036038101908080359060200190929190505050610241565b005b3480156100b657600080fd5b506100bf610458565b6040518082815260200191505060405180910390f35b3480156100e157600080fd5b506101006004803603810190808035906020019092919050505061045e565b6040518084815260200180602001838152602001828103825284818151815260200191508051906020019080838360005b8381101561014c578082015181840152602081019050610131565b50505050905090810190601f1680156101795780820380516001836020036101000a031916815260200191505b5094505050505060405180910390f35b34801561019557600080fd5b506101b460048036038101908080359060200190929190505050610520565b005b3480156101c257600080fd5b506101e1600480360381019080803590602001909291905050506106f6565b005b3480156101ef57600080fd5b50610224600480360381019080803573ffffffffffffffffffffffffffffffffffffffff1690602001909291905050506107d6565b604051808381526020018281526020019250505060405180910390f35b600160003373ffffffffffffffffffffffffffffffffffffffff1673ffffffffffffffffffffffffffffffffffffffff16815260200190815260200160002060010154600160003373ffffffffffffffffffffffffffffffffffffffff1673ffffffffffffffffffffffffffffffffffffffff1681526020019081526020016000206000015410151561033c576040517f08c379a00000000000000000000000000000000000000000000000000000000081526004018080602001828103825260148152602001807f766f7465206c696d69742065786365656465642e00000000000000000000000081525060200191505060405180910390fd5b6000811115156103b4576040517f08c379a00000000000000000000000000000000000000000000000000000000081526004018080602001828103825260128152602001807f63616e64696461746520696e76616c69642e000000000000000000000000000081525060200191505060405180910390fd5b60018060003373ffffffffffffffffffffffffffffffffffffffff1673ffffffffffffffffffffffffffffffffffffffff16815260200190815260200160002060000160008282540192505081905550600160008083815260200190815260200160002060020160008282540192505081905550807ffff3c900d938d21d0990d786e819f29b8d05c1ef587b462b939609625b684b1660405160405180910390a250565b60025481565b6000602052806000526040600020600091509050806000015490806001018054600181600116156101000203166002900480601f0160208091040260200160405190810160405280929190818152602001828054600181600116156101000203166002900480156105105780601f106104e557610100808354040283529160200191610510565b820191906000526020600020905b8154815290600101906020018083116104f357829003601f168201915b5050505050908060020154905083565b6000600160003373ffffffffffffffffffffffffffffffffffffffff1673ffffffffffffffffffffffffffffffffffffffff168152602001908152602001600020600001541115156105da576040517f08c379a00000000000000000000000000000000000000000000000000000000081526004018080602001828103825260148152602001807f6e6f2076616c696420766f746520666f756e642e00000000000000000000000081525060200191505060405180910390fd5b600081111515610652576040517f08c379a00000000000000000000000000000000000000000000000000000000081526004018080602001828103825260128152602001807f63616e64696461746520696e76616c69642e000000000000000000000000000081525060200191505060405180910390fd5b60018060003373ffffffffffffffffffffffffffffffffffffffff1673ffffffffffffffffffffffffffffffffffffffff16815260200190815260200160002060000160008282540392505081905550600160008083815260200190815260200160002060020160008282540392505081905550807ffff3c900d938d21d0990d786e819f29b8d05c1ef587b462b939609625b684b1660405160405180910390a250565b60008110801561074a5750600081600160003373ffffffffffffffffffffffffffffffffffffffff1673ffffffffffffffffffffffffffffffffffffffff1681526020019081526020016000206001015401105b15151561075657600080fd5b80600160003373ffffffffffffffffffffffffffffffffffffffff1673ffffffffffffffffffffffffffffffffffffffff16815260200190815260200160002060010160008282540192505081905550807f653203488490f3c6319ca598b0f0ec3ffdb517a6cd77fc567597299c018a9e8f60405160405180910390a250565b600160205280600052604060002060009150905080600001549080600101549050825600a165627a7a72305820df0d57367372c05c4570e0217e7c9f74a68c5d4b2d0e0e7bad793c87fc13f1fe0029",
  "source": "pragma solidity ^0.4.17;\r\n\r\ncontract Election {\r\n\r\n    struct Candidate {\r\n        uint id;\r\n        string name;\r\n        uint voteCount;\r\n    }\r\n\r\n    struct Voter {\r\n        uint voteCount;\r\n        uint maxVote;\r\n    }\r\n\r\n    event votedEvent (\r\n        uint indexed _candidateId\r\n    );\r\n\r\n    event voteLimitEvent (\r\n        uint indexed votes\r\n    );\r\n    \r\n    // Read/Write Candidates\r\n    mapping(uint => Candidate) public candidates;\r\n    // Store accounts that have voted\r\n    mapping(address => Voter) public voters;\r\n\r\n    // Store Candidates Count\r\n    uint public candidatesCount;\r\n\r\n    //Constructor\r\n    constructor() public {\r\n        addCandidate(\"Candidate 1\");\r\n        addCandidate(\"Candidate 2\");\r\n\r\n        if (voters[msg.sender].maxVote == 0) {\r\n            voters[msg.sender] = Voter(0,3);\r\n        }\r\n    }\r\n\r\n    function addCandidate (string _name) private {\r\n        candidatesCount ++;\r\n        candidates[candidatesCount] = Candidate(candidatesCount,_name,0);\r\n    }\r\n\r\n    function vote (uint _candidateId) public {\r\n        // require that they haven't exceeded the vote limit\r\n        require(voters[msg.sender].voteCount<voters[msg.sender].maxVote,\"vote limit exceeded.\");\r\n\r\n        // require a valid candidate\r\n        require(_candidateId > 0,\"candidate invalid.\");\r\n\r\n        // update that voter has voted\r\n        voters[msg.sender].voteCount += 1;\r\n\r\n        // update candidate vote Count\r\n        candidates[_candidateId].voteCount += 1;\r\n        \r\n        // trigger voted event\r\n        emit votedEvent(_candidateId);\r\n    }\r\n\r\n    function unvote (uint _candidateId) public {\r\n        // require that the vote count is positive\r\n        require(voters[msg.sender].voteCount>0, \"no valid vote found.\");\r\n\r\n        // require a valid candidate\r\n        require(_candidateId > 0,\"candidate invalid.\");\r\n\r\n        // update that voter has voted\r\n        voters[msg.sender].voteCount -= 1;\r\n\r\n        // update candidate vote Count\r\n        candidates[_candidateId].voteCount -= 1;\r\n\r\n        // trigger voted event\r\n        emit votedEvent(_candidateId);\r\n    }\r\n\r\n    function addMaxVotes (uint votes) public {\r\n        require(!(votes<0 && voters[msg.sender].maxVote + votes < 0));\r\n        voters[msg.sender].maxVote += votes;\r\n\r\n        emit voteLimitEvent(votes);\r\n    }\r\n}",
  "sourcePath": "D:\\practice\\exe_js\\election\\contracts\\Election.sol",
  "compiler": {
    "name": "solc",
    "version": "0.4.24+commit.e67f0147.Emscripten.clang"
  },
  "schemaVersion": "2.0.0",
  "updatedAt": "2018-07-02T23:46:55.596Z"
}